:100000000C94F8010C9417020C9417020C9417022C
:100010000C9417020C9417020C94AB260C94170244
:100020000C9417020C9417020C9417020C941702EC
:100030000C9417020C94F86D0C9417020C94170290
:100040000C9417020C9417020C9417020C941702CC
:100050000C94D1320C94EB280C9417020C941702D8
:100060000C9417020C9460290C9417020C9417023C
:100070000C9417020C9417020C9417020C9417029C
:100080000C94C36E0C9417020C9417020C94170274
:100090000C948F290C9417020C9417020C941702DD
:1000A0000C9417020C9417020C9417020C9417026C
:1000B0000C9417020C9417020C9417020C9417025C
:1000C0000C9417020C9417020C9417020C9417024C
:1000D0000C9417020C9417020C9417020C9417023C
:1000E0000C9417020C948A320C9494320C94803243
:1000F0000C94E8320C94C5320C94B6320C94AA32AB
:100100000C949E320C9417020C9417020C94170254
:100110000C9417020C9417020C9417020C941702FB
:10012000E315DC1520162F163C164316D51563165D
:100130006D16CE158E169F16D4169717E0168C17CF
:10014000C7158C17C0158C178817257325730A00DF
:100150004E657665722D7573656420737461636B8B
:10016000203E2025642062797465730A000A2D2DD3
:100170002D2D2D2D2D2D2D0A0020203C6E6F6E650E
:100180003E002920256C75730A002F2575202876DE
:10019000696120000A526F75746573205B257520B4
:1001A0006D61785D0A0020203C6E6F6E653E000A2E
:1001B000000A4E65696768626F7273205B2575205F
:1001C0006D61785D0A000A000A41646472657373A8
:1001D0006573205B2575206D61785D0A00257800C8
:1001E0003A003A3A0025732025732C206368616E2B
:1001F0006E656C202575202C20636865636B20720A
:1002000061746520257520487A20747820706F7796
:1002100065722025750A004555492D3634204D411B
:10022000433A2025782D25782D25782D25782D25E4
:10023000782D25782D25782D25780A000A2A2A2A56
:100240002A2A2A2A426F6F74696E672025732A2A28
:100250002A2A2A2A2A0A00020000FFFE0000014181
:10026000544D45474131323872666131006C6F63DD
:10027000616C686F737400454550524F4D2069732F
:1002800020636F72727570742C2072657772697456
:10029000696E6720776974682064656661756C743F
:1002A000732E0A00452025642E256420636C6F633D
:1002B0006B20256C752063707520256C75206C7023
:1002C0006D20256C752069727120256C7520676C16
:1002D000656420256C7520796C656420256C75201B
:1002E000726C656420256C7520747820256C7520EF
:1002F0006C697374656E20256C752073656E736F01
:10030000727320256C752073657269616C20256C91
:10031000750A00532025642E256420636C6F636B7F
:1003200020256C7520747820256C75207278202526
:100330006C752072747820256C7520727278202577
:100340006C75207265786D697420256C7520616309
:100350006B747820256C75206E6F61636B747820E8
:10036000256C752061636B727820256C752074692B
:100370006D65646F757420256C75206261646163BE
:100380006B727820256C7520746F6F6C6F6E6720B0
:10039000256C7520746F6F73686F727420256C758F
:1003A0002062616473796E636820256C75206261D8
:1003B0006463726320256C7520636F6E74656E7460
:1003C000696F6E64726F7020256C752073656E6442
:1003D000696E6764726F7020256C75206C6C747820
:1003E00020256C75206C6C727820256C750A0000D5
:1003F00011241FBECFEFD1E4DEBFCDBF1AE0A0E0D5
:10040000B2E0ECEFFCEE00E00BBF02C007900D92F3
:10041000A830B107D9F711E3A8E0BAE001C01D92F6
:10042000A930B107E1F70E94A2230C947C760C94CA
:1004300000000F931F938B01609131077091320779
:10044000E091E706F091E806C8010995E091FB0606
:10045000F091FC06C80160E072E04EE050E00995C2
:100460001F910F9108950F931F938B016091310796
:1004700070913207E091E706F091E806C80109950E
:10048000E091FB06F091FC06C8016FE072E04EE0DF
:1004900050E009951F910F9108952F923F924F922E
:1004A0005F926F927F928F929F92AF92BF92CF9204
:1004B000DF92EF92FF920F931F93CF93DF934B0145
:1004C0002A01E80188819981AA81BB8182509840E4
:1004D000A040B0407CF4EE24FF2487015901CC24D5
:1004E000DD2439010894611C711C9EE2292E92E0E2
:1004F000392E4AC06091190770911A07E091E306FE
:10050000F091E406C4010995E091FB06F091FC0628
:10051000C4016EE172E04FE050E009957BC08DB7F9
:100520009EB70A970FB6F8949EBF0FBE8DBFEDB76A
:10053000FEB73196C2018E0D9F1DADB7BEB71296A4
:100540009C938E931197C3018E199F099383828385
:100550003582248288819981AA81BB818683978391
:10056000A087B1870E942373AA2797FDA095BA2F71
:10057000E80EF91E0A1F1B1F8DB79EB70A960FB60D
:10058000F8949EBF0FBE8DBFEA14FB040C051D0539
:1005900034F2AE14BF04C006D10614F4860175010E
:1005A000288139814A815B81D801C701820F931F5D
:1005B000A41FB51F83509840A040B04054F082E083
:1005C000E82E88E0F82E012D112DE21AF30A040B13
:1005D000150BE091FB06F091FC06C401B201A701E6
:1005E000099588819981AA81BB818E0D9F1DA01FCD
:1005F000B11F88839983AA83BB8382509840A0400F
:10060000B04044F08FEF9FEFAFEFBFEF8883998347
:10061000AA83BB83DF91CF911F910F91FF90EF9041
:10062000DF90CF90BF90AF909F908F907F906F9012
:100630005F904F903F902F900895AF92BF92CF92CE
:10064000DF92EF92FF920F931F93DF93CF9300D02F
:10065000CDB7DEB78C017B01D42EC52EE0916D089D
:10066000F0916E0880E090E009955C011A82198291
:10067000E091E906F091EA06C801BE016F5F7F4F85
:100680000995892B59F0E981FA8160817181809106
:100690003107909132076817790709F560913107A2
:1006A00070913207E091E706F091E806C7010995DD
:1006B0008DB79EB708970FB6F8949EBF0FBE8DBF3B
:1006C000EDB7FEB73196ADB7BEB71196DC92C182D9
:1006D00080E490E09383828384E392E021C0809160
:1006E000590790915A0768177907D1F5E091E70605
:1006F000F091E806C7010995ADB7BEB718970FB6D8
:10070000F894BEBF0FBEADBFEDB7FEB731961196E0
:10071000DC92C18280E490E09383828387E392E05D
:1007200095838483B782A6820E942373ED2DFC2DCE
:10073000DF010D900020E9F71197AE1BBF0B8DB7BD
:100740009EB708960FB6F8949EBF0FBE8DBFE0917E
:10075000FB06F091FC06C7016D2D7C2DAD0113C089
:100760006091230770912407E091E306F091E4067D
:10077000C7010995E091FB06F091FC06C7016AE408
:1007800072E048E350E009950F900F90CF91DF9110
:100790001F910F91FF90EF90DF90CF90BF90AF909F
:1007A0000895AF92BF92CF92DF92EF92FF920F9394
:1007B0001F93DF93CF9300D0CDB7DEB78C017B01C1
:1007C000D42EC52EE0913909F0913A0980E090E0ED
:1007D00009955C011A821982E091E906F091EA0616
:1007E000C801BE016F5F7F4F0995892B59F0E981E0
:1007F000FA81608171818091310790913207681789
:10080000790709F56091310770913207E091E706A9
:10081000F091E806C70109958DB79EB708970FB606
:10082000F8949EBF0FBE8DBFEDB7FEB73196ADB742
:10083000BEB71196DC92C18280E490E093838283FC
:1008400084E392E021C08091590790915A0768177C
:100850007907D1F5E091E706F091E806C70109951F
:10086000ADB7BEB718970FB6F894BEBF0FBEADBFF9
:10087000EDB7FEB731961196DC92C18280E490E02C
:100880009383828383E892E095838483B782A682F0
:100890000E942373ED2DFC2DDF010D900020E9F760
:1008A0001197AE1BBF0B8DB79EB708960FB6F89485
:1008B0009EBF0FBE8DBFE091FB06F091FC06C70105
:1008C0006D2D7C2DAD0113C060912307709124071D
:1008D000E091E306F091E406C7010995E091FB067B
:1008E000F091FC06C7016AE472E048E350E0099524
:1008F0000F900F90CF91DF911F910F91FF90EF908C
:10090000DF90CF90BF90AF90089584E00E947E2B3F
:1009100008958F929F92BF92CF92DF92EF92FF92B3
:100920000F931F93DF93CF9300D000D0CDB7DEB7E6
:100930006C014B011A8219821C821B8200D000D0EC
:1009400082E992E0ADB7BEB712969C938E93119751
:100950001496DC92CE9213970E94B9720F900F906A
:100960000F900F90E091FF06F0910007C60162EA38
:1009700072E0AE014F5F5F4F09958C01009709F45B
:100980007FC000D000D000D0EDB7FEB7319688EA26
:1009900092E0ADB7BEB712969C938E9311971383D6
:1009A000028389819A81958384830E94B972E98048
:1009B000FA80EDB7FEB736960FB6F894FEBF0FBEBD
:1009C000EDBFC70166EB72E0A8010E948972009733
:1009D00019F434E0B32E16C0C70168EB72E0A80129
:1009E0000E948972009719F4BB24B3940BC0C7010D
:1009F0006AEB72E0A8010E948972009709F040C07A
:100A000022E0B22EE0910107F0910207C6016CEBE3
:100A100072E0AE014D5F5F4F09958C01009781F147
:100A200000D000D081EC92E0ADB7BEB712969C9397
:100A30008E9311978B819C8114969C938E93139720
:100A40000E94B972EB80FC800F900F900F900F9076
:100A5000C7016AEC72E0A8010E948972009721F434
:100A60008B2D0E94952B16C0C7016DEC72E0A8017A
:100A70000E948972009721F48B2D0E948A2B0AC054
:100A80006091150770911607E091E306F091E40676
:100A9000C40109950F900F900F900F90CF91DF91A7
:100AA0001F910F91FF90EF90DF90CF90BF909F909C
:100AB0008F900895CF92DF92EF92FF920F931F9342
:100AC000DF93CF93CDB7DEB7CA56D0400FB6F894B8
:100AD000DEBF0FBECDBF6C012091140A3091150A04
:100AE0002F5F3F4F3093150A2093140A00D000D097
:100AF00000D0EDB7FEB7319681ED92E0ADB7BEB74D
:100B000012969C938E93119733832283D601149669
:100B10008D919C911597958384830E94B9728DB7AE
:100B20009EB706960FB6F8949EBF0FBE8DBF8E017E
:100B30000F5F1F4FC80160E070E045E420E030E047
:100B40000E945B14ADB7BEB718970FB6F894BEBF3E
:100B50000FBEADBFEDB7FEB7319648E0E42E4AE0D8
:100B6000F42E1296FC92EE9211978CE090E0938313
:100B7000828382EE92E0958384838091140A90911F
:100B8000150A978386830E942373AC018DB79EB7A5
:100B900008960FB6F8949EBF0FBE8DBFC801B7016F
:100BA0000E94A0116091140A7091150AE091030748
:100BB000F0910407C601A8010995C659DF4F0FB689
:100BC000F894DEBF0FBECDBFCF91DF911F910F9183
:100BD000FF90EF90DF90CF900895CF92DF92EF9249
:100BE000FF920F931F93DF93CF93CDB7DEB7CA5613
:100BF000D0400FB6F894DEBF0FBECDBF6C01809120
:100C0000210A9091220A01969093220A8093210A48
:100C10008E010F5F1F4FC80161E070E045E420E0E6
:100C200030E00E945B148DB79EB708970FB6F8941A
:100C30009EBF0FBE8DBFEDB7FEB7319656E1E52ED4
:100C40005AE0F52EADB7BEB71296FC92EE92119710
:100C50008BE090E0938382838BEE92E09583848394
:100C60008091210A9091220A978386830E942373A0
:100C7000AC018DB79EB708960FB6F8949EBF0FBE15
:100C80008DBFC801B7010E94A0116091210A709127
:100C9000220AE0910307F0910407C601A801099513
:100CA000C659DF4F0FB6F894DEBF0FBECDBFCF9150
:100CB000DF911F910F91FF90EF90DF90CF900895FB
:100CC000CF92DF92EF92FF920F931F93DF93CF9318
:100CD000CDB7DEB7CA56D0400FB6F894DEBF0FBE10
:100CE000CDBF8091230A882309F444C04091340A7F
:100CF0005091350A8091380A9091390A64E27AE07D
:100D00000E94821C6C010097A9F17E010894E11CED
:100D1000F11CC70164E27AE045E40E942D1FA9E4BA
:100D2000BAE0FD0101900020E9F7EA54FA40C7015A
:100D3000BD01AF010E94A0114091430A5091440AA5
:100D40006091450A7091460A0091470A1091480A3D
:100D5000C70120E00E94D610B6016B5D7F4FC7012E
:100D60000E94EC17F60194A383A3C6010E94011C04
:100D70001092230AC659DF4F0FB6F894DEBF0FBE9C
:100D8000CDBFCF91DF911F910F91FF90EF90DF903A
:100D9000CF900895CF93DF93EC01888199810097DC
:100DA00029F08152934009F092C07FC083EF92E016
:100DB0000E94EE7200D000D086E193E0EDB7FEB75E
:100DC0009283818380E095E0948383830E94B9724B
:100DD00086E293E0EDB7FEB792838183148213829B
:100DE0000E94B97285E393E0EDB7FEB792838183E9
:100DF00080E390E0948383830E94B97288E493E057
:100E0000EDB7FEB79283818380E490E0948383837F
:100E10000E94B9720F900F900F900F900E949D2129
:100E200081EE93E00E94562180E294E00E945621D8
:100E30008EE994E00E94802186ED94E00E94712169
:100E400086E594E00E945621E091E008F091E108E7
:100E500081E890E061E070E0099585E395E00E940B
:100E6000562185E795E00E945621E0913B09F091DB
:100E70003C0981E890E061E070E009958BEB95E03A
:100E80000E945621E0916F08F091700881E890E08F
:100E900061E070E009958CE096E00E94562181E2C5
:100EA00093E09983888381E015C08091512268176F
:100EB000B1F74C5D584099F78CE593E00E94EE72D3
:100EC00086ED94E00E945A050E946006E8CF1982E0
:100ED000188283E0DF91CF9108959C018091230ACD
:100EE000882319F00E94201F089581E08093230A2F
:100EF000C90164E27AE00E94471F00D000D000D010
:100F0000EDB7FEB7319689E49AE0ADB7BEB7129659
:100F10009C938E93119780E190E09383828383E684
:100F200093E0958384830E9423738DB79EB70696C2
:100F30000FB6F8949EBF0FBE8DBF0895CF92DF927B
:100F4000EF92FF920F931F93DF93CF9300D000D0C7
:100F5000CDB7DEB78C017B01D42EC52E1A82198243
:100F60008CE090E09C838B8300D000D082E992E0FB
:100F7000EDB7FEB792838183148303830E94B97215
:100F80000F900F900F900F90E091FF06F0910007E7
:100F9000C8016EE673E0AE014F5F5F4F0995892B84
:100FA00099F089819A810E9424729C838B8397FF98
:100FB00002C01C821B828B819C818134910524F0AC
:100FC00080E490E09C838B8322E733E04B815C815B
:100FD0008D2D9C2DB9010E945C726091310770913A
:100FE0003207E091E706F091E806C7010995E09124
:100FF000EF06F091F006C701BE016D5F7F4F41E043
:1010000050E009954B815C81E091FB06F091FC0674
:10101000C7016D2D7C2D09950F900F900F900F90AB
:10102000CF91DF911F910F91FF90EF90DF90CF90C4
:10103000089590935A0A8093590A0895FC01868175
:1010400090E0019721E030E002C0220F331F8A9523
:10105000E2F7C90108958F929F92AF92BF92CF920B
:10106000DF92EF92FF920F931F93CF93DF93EC01E8
:101070005A014901680188819981009729F08B5EA6
:10108000914009F099C052C0188619861A861B86AD
:101090001F821E828091480D9091490D9B838A8307
:1010A0001092360B1092320B1092330B1092340BBD
:1010B0001092350B1092310B0E94FD0EF6019087B5
:1010C0008783B501A4010E94821CFC019D838C834F
:1010D000009709F464C087EB9BE090A3878FEC81B5
:1010E000FD81D2A3C1A3488559856A857B854115B9
:1010F00051056105710531F0C60120E000E410E002
:101100000E94D6100C811D81B8016B5D7F4FC60116
:101110000E94EC17F80194A383A38C819D810E9407
:10112000011C8BEE91E09983888302C0623811F034
:1011300081E045C08E819F81009789F162E37BE069
:1011400046E35BE020E030E000E010E00E948C101D
:101150002091320B3091330B4091340B5091350B71
:1011600088859985AA85BB85281739074A075B07B3
:1011700081F48E819F81F701099588859985AA85DB
:10118000BB850196A11DB11D88879987AA87BB875A
:101190000AC08091310B8F5F8093310B04C019829C
:1011A000188282E00CC08091360B882329F0809150
:1011B000310B843008F480CF1982188283E0DF91EC
:1011C000CF911F910F91FF90EF90DF90CF90BF9044
:1011D000AF909F908F9008956F927F929F92AF9261
:1011E000BF92CF92DF92EF92FF920F931F93DF9304
:1011F000CF93CDB7DEB72E970FB6F894DEBF0FBEF4
:10120000CDBF3C01FC0180819181009729F0835B77
:10121000914009F094C211C08DEB96E00E945621D6
:101220000E94CC1B86E193E30E94B11B83EB91E00B
:10123000F3019183808381E086C28091C62B681779
:1012400009F077C21092380B1092370B8091052A63
:1012500081FFECCF60910A2A70910B2A4091F5240E
:101260005091F62487EC9AE00E9498149093380BE2
:101270008093370B892B09F0FDC18091CD0A8150F5
:10128000843008F0C0C1E0917D12F0E0E35DFA4DDA
:10129000408151818091CE0A9091CF0A6DE075E234
:1012A0000E94821C90935C0A80935B0A892B09F44C
:1012B0009DC11B821C821D821E8280E490E09A8365
:1012C00089831F82188619861A861B861C861D86AE
:1012D0001E868091CA0A9091CB0A892B49F42091ED
:1012E000CE0A3091CF0A8DE59AE062E070E007C047
:1012F0000E94FD0E9C018DE59AE061E070E045E4FE
:101300000E945B148091D00A9091D10AA091D20AD8
:10131000B091D30A93FF1AC04091FB0A8DE59AE081
:101320006CEF7AE050E00E94AF128091660A9091D3
:10133000670AA091680AB091690A98608093660A6A
:101340009093670AA093680AB093690A87EC9AE0C1
:10135000BE016D5F7F4F40E050E09E012F5F3F4F29
:101360008E01095F1F4F0E948C10892B89F08981A3
:101370009A818134910510F080E490E09A8389830A
:101380008F819885A985BA858B879C87AD87BE8715
:10139000E091590AF0915A0A309709F41EC1409120
:1013A0005B0A50915C0A4C5A5F4F29813A8187EC65
:1013B0009AE06DE57AE08E01055F1F4F0995892B54
:1013C00009F4ECC08091370B9091380B892B09F010
:1013D000E5C02091D00A3091D10A4091D20A5091B3
:1013E000D30A43FF1BC08091630A87FD17C0809119
:1013F000660A9091670AA091680AB091690AA3FDF4
:101400000DC081EA90E09093380B8093370B82E413
:1014100096E09093E8078093E707C0C0EB84FC84D4
:101420000D851E8541FF8FC08F819885A985BA855E
:10143000E816F9060A071B0709F056C08091C30A8F
:101440009091C40A9C0140E050E0E216F3060407C4
:10145000150750F082E88093630A8DE59AE062E513
:1014600076E04FE050E098C0E981FA81AB80BC8023
:10147000CD80DE8099242E193F09400B510BCF01FE
:10148000A0E0B0E082179307A407B50710F49924F1
:1014900093948DE59AE0B601A501292D8F010E9454
:1014A000D6108F819885A985BA856091C50A7091FB
:1014B000C60A680F791F2091C30A3091C40A40E020
:1014C00050E0281B390B4A0B5B0B89819A81A0E005
:1014D000B0E082179307A407B50710F49C01AD0193
:1014E0008DE59AE0A90158C04B815C816D817E81B8
:1014F000FFEFEF16FFEFFF06FFEF0F07FFEF1F07EE
:1015000059F4E0E0F0E02091C30A3091C40A8981E7
:101510009A818217930710F4E1E0F0E009811A81C3
:101520008DE59AE02E2F0E94D61049815A81809134
:10153000C30A9091C40A4817590780F56091C50AFB
:101540007091C60A27C0E114F1040105110531F1BB
:1015500020E08FEFE8168FEFF8068FEF08078FEF88
:10156000180709F021E08DE59AE040E050E060E0E6
:1015700070E000E410E00E94D6106091C50A7091FE
:10158000C60A4091C30A5091C40A4134510510F073
:1015900040E450E08DE59AE00E94A0118091370B65
:1015A0009091380B892B09F065C000915B0A10916E
:1015B0005C0AB8016B5D7F4F8DE59AE00E94EC17E5
:1015C000F80194A383A3892B09F054C081EC90E027
:1015D0009093380B8093370B4DC081EA90E0909345
:1015E000380B8093370B82E696E008C083EA90E0E0
:1015F0009093380B8093370B83E796E09093E8073E
:101600008093E70737C08091CA0A9091CB0A823055
:10161000910589F0039779F4E0917D12F0E0E35DA4
:10162000FA4D608171814091CE0A5091CF0A8DE0D0
:1016300095E20E94411D8091CE0A9091CF0A0E94AE
:10164000D51BFC0190935C0A80935B0A009771F0B4
:10165000078D10A1E1A0F2A00E94EC1B011511055D
:1016600029F0C70167EC7AE0F801099510925C0A4D
:1016700010925B0A2091370B3091380B2115310500
:1016800051F480915B0A90915C0A009709F4CECDE9
:101690000E94011CCBCD80915B0A90915C0A223C98
:1016A000310519F40E94EC1BC1CD0E94EC1B809106
:1016B000370B9091380B803C910530F080EA90E038
:1016C0009093380B8093370B2091CE0A3091CF0A3C
:1016D00087EC9AE062E070E04091370B0E945B1467
:1016E0006091E7077091E807FB01DF010D90002092
:1016F000E9F71197AE1BBF0B87EC9AE0AD010E9492
:10170000A011E0917D12F0E0E35DFA4DE080F18000
:1017100000910A2A10910B2A87EC9AE0B8010E94E6
:10172000EC179C018DE095E2B701A8010E94861B91
:101730007DCD683809F07ACD0E94661C77CDF30123
:101740001182108283E02E960FB6F894DEBF0FBE92
:10175000CDBFCF91DF911F910F91FF90EF90DF9060
:10176000CF90BF90AF909F907F906F900895FC01B5
:1017700077836683828193810E94FE3608952F923B
:101780003F924F925F926F927F928F929F92AF9211
:10179000BF92CF92DF92EF92FF920F931F93DF934E
:1017A000CF93CDB7DEB762970FB6F894DEBF0FBE0A
:1017B000CDBF78876F835A874987190128011A821C
:1017C000198263E876E0AE014F5F5F4F0E944314D9
:1017D0009C838B830E94F71F0E9426389E838D83F3
:1017E000AA24BB24EE24FF2491012F5F3F4F3C87A6
:1017F0002B874B815C81415050405E874D87BBC138
:101800008B819C81892B71F1AD81BE8116968D9162
:101810009C91179766E876E00E9497728C0100977A
:1018200009F4A2C1C980DA800496B6014D855E85AF
:101830000E944F72009709F097C1EB81FC81CE0E98
:10184000DF1E0894C108D108D6016C916A3251F0AC
:10185000E00FF11F8381681709F086C1848182320D
:1018600009F082C1950140E050E0F2018081918150
:10187000A281B381281739074A075B076CF0E2148D
:10188000F30450F4E985FA85EE0DFF1D5CE3652E47
:1018900060820894E11CF11CB5016F5F7F4F9B01D2
:1018A00040E050E0F20180819181A281B38128174C
:1018B00039074A075B076CF0E214F30450F4E9853A
:1018C000FA85EE0DFF1D4FE2642E60820894E11C44
:1018D000F11C5B010894A11CB11CAD81BE81149662
:1018E0006D917C911597DB010D900020E9F78D013A
:1018F00001501040061B170B0A0D1B1D38018824D0
:101900009924D2012D913D914D915C912F87388B77
:10191000498B5A8B26153705480559050CF045C0EB
:10192000EDB7FEB738970FB6F894FEBF0FBEEDBF08
:10193000319689859A858E0D9F1DADB7BEB71296DB
:101940009C938E9311978B859C858E199F09938309
:1019500082832BE836E035832483C501A0E0B0E024
:101960002F85388949895A89281B390B4A0B5B0B0B
:10197000DA01C90157FF04C080E090E0A0E0B0E0C8
:10198000680F791F778366830E942373E80EF91E20
:101990004DB75EB7485F5F4F0FB6F8945EBF0FBE9E
:1019A0004DBFE214F30408F0EBC0F2018081918195
:1019B000A281B381681679068A069B066CF0E21450
:1019C000F30450F4E985FA85EE0DFF1D3EE3632E26
:1019D00060820894E11CF11C58010894A11CB11C00
:1019E000AD81BE811696ED91FC9117978081882379
:1019F00009F485C0950140E050E0F20180819181B9
:101A0000A281B381281739074A075B076CF0E214FB
:101A1000F30450F4E985FA85EE0DFF1D2BE3622EE9
:101A200060820894E11CF11C85010F5F1F4FAD819E
:101A3000BE8116966D917C911797DB010D90002069
:101A4000E9F75D010894A108B108A61AB70AA00E2B
:101A5000B11EF2012081318142815381C501A0E094
:101A6000B0E0281739074A075B070CF048C08DB76C
:101A70009EB708970FB6F8949EBF0FBE8DBFEDB707
:101A8000FEB7319689859A858E0D9F1DADB7BEB77D
:101A900012969C938E9311978B859C858E199F0926
:101AA000938382839BE8692E96E0792E7582648207
:101AB000C801A0E0B0E039014A01681A790A8A0A2F
:101AC0009B0AD401C30197FE04C080E090E0A0E02F
:101AD000B0E0680F791F778366830E942373E80E56
:101AE000F91E2DB73EB7285F3F4F0FB6F8943EBFA3
:101AF0000FBE2DBFE214F30410F0580141C0AD81B8
:101B0000BE818D919C91892BE9F0950140E050E0D8
:101B1000F20180819181A281B381281739074A0798
:101B20005B076CF0E214F30450F4E985FA85EE0DDE
:101B3000FF1D8CE2682E60820894E11CF11C089461
:101B4000A11CB11CE214F30478F0C5018E199F09A1
:101B5000A0E0B0E0F2012081318142815381281759
:101B600039074A075B0764F0AD81BE810D90BC91D7
:101B7000A02DBE83AD83ED81FE81EF2B09F040CE19
:101B8000E114F10471F08F81988569857A85A70148
:101B90000E94A0118F81988568E270E00E94210F59
:101BA00010C0AB2871F08F81988562E870E00E94C8
:101BB000090F8F81988562E576E04FE050E00E9442
:101BC000A0116D807E80672831F48FEF9FEFAFEF1B
:101BD000BFEFF2010CC0910140E050E0F2018081C2
:101BE0009181A281B381820F931FA41FB51F8083AF
:101BF0009183A283B38362960FB6F894DEBF0FBEC3
:101C0000CDBFCF91DF911F910F91FF90EF90DF90AB
:101C1000CF90BF90AF909F908F907F906F905F908C
:101C20004F903F902F9008958CE996E060E070E02F
:101C30000E94D13608959C01FA016F30710550F46D
:101C4000862F8F70922F9295907F892B808321E031
:101C500030E00DC084E0220F331F8A95E1F7822F18
:101C60008F608083862F8F50818322E030E0C9010E
:101C700008959F92AF92BF92CF92DF92EF92FF9220
:101C80000F931F93CF93DF935C017B016A01C0E048
:101C9000D0E09EE0992E18C0C9016EE070E00E946D
:101CA0008471092D081B10E0A6014C0F5D1F2196C1
:101CB000C80160E070E00E941B0EF70180819181F5
:101CC000800F911F91838083F70120813181C501AD
:101CD000821B930B409704F7CE01DF91CF911F91A8
:101CE0000F91FF90EF90DF90CF90BF90AF909F90BB
:101CF00008958F929F92AF92BF92CF92DF92EF9210
:101D0000FF920F931F93DF93CF9300D0CDB7DEB731
:101D10004C017A8369835A0178018901BE016F5FA2
:101D20007F4F0E94390E9C01D801C70180709070CE
:101D3000A0700097A105B10511F469010CC06901FB
:101D40000894C11CD11CF501EC0DFD1D812F9927B4
:101D5000AA27BB278083D801C701807090700097A5
:101D6000A105B10551F00894C11CD11CF501EC0D81
:101D7000FD1DC801AA27BB278083D801C701807039
:101D80000097A105B10561F00894C11CD11CF501B3
:101D9000EC0DFD1DBB27A12F902F8F2D808305C03B
:101DA000E114F1040105110539F00894C11CD11C9E
:101DB000F501EC0DFD1DE08289819A81B601621B5F
:101DC000730BA20EB31E9401281B390BC901A50188
:101DD0000E941B0E9C012C0D3D1DC9010F900F9000
:101DE000CF91DF911F910F91FF90EF90DF90CF90F7
:101DF000BF90AF909F908F90089520913B0B3091B2
:101E00003C0B2F5F3F4F30933C0B20933B0BC901A2
:101E10000895FC016F3F710521F018F020E030E0DB
:101E200003C0668321E030E0C9010895FC0181858B
:101E300081FD03C02FEF3FEF02C025853685C90124
:101E40000895FC017687658781859285A385B48591
:101E5000826081879287A387B48781E090E00895AC
:101E6000CF93DF93EB01FC0181859285A385B48537
:101E700094FD03C020E030E007C0FE96F983E883BC
:101E8000FE9785AD282F30E0C901DF91CF910895ED
:101E9000CF93DF93EC018DAD8230A0F4E82FF0E01A
:101EA0007F96EE0FFF1FEC0FFD1F718360838F5F26
:101EB0008DAF89859A85AB85BC85906189879A8726
:101EC000AB87BC878DAD90E0DF91CF910895CF9324
:101ED000DF93EB01FC01818582FD05C08CE390E07E
:101EE000A0E0B0E004C087859089A189B289888389
:101EF0009983AA83BB8381E090E0DF91CF9108951D
:101F0000FC014787508B618B728B81859285A385FD
:101F1000B485846081879287A387B48781E090E04D
:101F20000895DB01FC01818584FD03C020E030E0E1
:101F300007C07896ED93FC9378978789282F30E037
:101F4000C9010895CF93DF93EB01FC018185928550
:101F5000A385B48595FD03C020E030E007C0ED5BAC
:101F6000FF4FF983E8838291282F30E0C901DF9188
:101F7000CF910895FC012185328543855485B5E1D3
:101F80005695479537952795BA95D1F721703070BA
:101F9000C9010895FC0181859285A385B485A0625D
:101FA00081879287A387B48781E090E00895CF93DB
:101FB000DF93EB01FC0181859285A385B48593FDB8
:101FC00003C020E030E007C0F596F983E883F59779
:101FD00084A9282F30E0C901DF91CF910895DB015A
:101FE000FC01818583FD03C020E030E006C08589C7
:101FF00096898D939C9323893489C9010895DB01C7
:10200000FC01818585FD03C020E030E006C082A18F
:1020100093A18D939C9320A131A1C9010895CF93E1
:10202000DF93EB01FC0181859285A385B48591FD49
:1020300003C020E030E006C080A991A9998388837D
:1020400026A537A5C901DF91CF910895DB01FC01D9
:102050008185928580709078892B19F420E030E09A
:1020600008C0ED59FF4F808191818D939C933291EF
:102070002291C9010895DB01FC01818586FD03C021
:1020800020E030E006C086A197A18D939C9324A107
:1020900035A1C9010895CF93DF93EB01FC01818540
:1020A0009285A385B48590FD03C020E030E006C092
:1020B00084A595A59983888322A533A5C901DF91BD
:1020C000CF910895CF93DF93EB01FC018185928539
:1020D000A385B48592FD03C020E030E00AC082A948
:1020E00093A9A0E0B0E088839983AA83BB8321E011
:1020F00030E0C901DF91CF910895FC0153AB42ABB1
:1021000081859285A385B485946081879287A38712
:10211000B48781E090E008950F931F93CF93DF93EE
:10212000EB01B801FC0181859285A385B485A1FDF1
:1021300003C020E030E034C0209761F0E55BFF4F42
:1021400080819181A281B381EB54F040888399838F
:10215000AA83BB834115510539F0E15BFF4F8081B4
:10216000EF54F040DA018C932115310549F0E05B22
:10217000FF4F80819181E055F040D9018D939C9370
:102180006115710559F0EE5AFF4F80819181A2814E
:10219000B381FB0180839183A283B38321E030E08C
:1021A000C901DF91CF911F910F9108950F931F9354
:1021B0000031110578F138E00130130758F540304F
:1021C00030E0530730E1630730E0730718F5FC0196
:1021D000E55BFF4F4083518362837383EB54F04090
:1021E000DF01A15BBF4F1C92222311F081E08C9391
:1021F000E05BFF4F11830083E055F04081859285BD
:10220000A385B485A26081879287A387B48721E0E4
:1022100030E002C020E030E0C9011F910F91089525
:102220000F931F93CF93DF93EB01B801FC018185DE
:102230009285A385B485A3FD03C020E030E034C0BF
:10224000209761F0EA5AFF4F80819181A281B3818A
:10225000E655F04088839983AA83BB8341155105D5
:1022600039F0E65AFF4F8081EA55F040DA018C934D
:102270002115310549F0E55AFF4F80819181EB55D9
:10228000F040D9018D939C936115710559F0E35A83
:10229000FF4F80819181A281B381FB018083918373
:1022A000A283B38321E030E0C901DF91CF911F9178
:1022B0000F9108950F931F930031110520F138E01D
:1022C0000130130700F5403030E0530730E1630779
:1022D00030E07307C0F4FC01EA5AFF4F4193519379
:1022E00061937193219311830083EB55F0408185B5
:1022F0009285A385B485A86081879287A387B487D8
:1023000021E030E002C020E030E0C9011F910F91D0
:102310000895DB01FC01E859FF4F80819181E85667
:10232000F040009739F08D939C93EA59FF4F20813C
:10233000318104C01D921C9220E030E0C901089553
:10234000FC01E859FF4F71836083E856F0409A0121
:102350004134510510F020E430E0EA59FF4F318359
:102360002083C9010895CF93DF93DB01EC0101C005
:1023700011968C918F33E1F3BDA7ACA7FD010D90B1
:102380000020E9F79D01215030402E1B3F0B3BA759
:102390002AA789859A85AB85BC85916089879A87AC
:1023A000AB87BC87822F9BA5DF91CF910895CF93F8
:1023B000DF93DB01EC0101C011968C918F33E1F3C7
:1023C000CD59DF4FB983A883C356D040FD010D908E
:1023D0000020E9F79D01215030402E1B3F0BFE01EC
:1023E000EF59FF4F3183208389859A85AB85BC8562
:1023F000906889879A87AB87BC87822F9181DF910C
:10240000CF910895CF93DF93DB01EC0101C01196CA
:102410008C918F32E1F3B9ABA8ABFD010D90002098
:10242000E9F79D01215030402E1B3F0B3FA72EA7FF
:1024300089859A85AB85BC85926089879A87AB87A9
:10244000BC87822F9FA5DF91CF910895DC019296E2
:102450006C93929793967C93DB010D900020E9F7A3
:10246000AD0141505040461B570BFC0151A340A306
:1024700081859285A385B485806281879287A387B1
:10248000B487842F91A10895DC0155966C935597DC
:1024900056967C93DB010D900020E9F7AD01415089
:1024A0005040461B570BFC01548B438B8185928512
:1024B000A385B485886081879287A387B487842F9A
:1024C00094890895CF92DF92EF92FF920F931F931A
:1024D000CF93DF93D82EC92E7B01082F192F03C06D
:1024E0000894E11CF11CD7018C918F32C9F3C7010C
:1024F0006FE370E00E947E72EC01009769F0BC010E
:102500006F5F7F4F8D2D9C2D0E94B311CE19DF0977
:10251000F801D5A3C4A30CC0F70101900020E9F78E
:102520003197EE19FF09D8019596FC93EE93949795
:10253000F801F7A2E6A281859285A385B48580641F
:1025400081879287A387B48784A195A1DF91CF91DA
:102550001F910F91FF90EF90DF90CF900895CF9350
:10256000DF93EC014930510510F048E050E04CABEE
:102570009E012B5C3F4FC90150E00E945C7289852F
:102580009A85AB85BC85986089879A87AB87BC871D
:102590008CA990E0DF91CF9108950F931F93CF9373
:1025A000DF93EC014930510510F048E050E08E0116
:1025B0000E5B1F4FF80140839E012D5B3F4FC90109
:1025C00050E00E945C7289859A85AB85BC859062DB
:1025D00089879A87AB87BC87F801808190E0DF917B
:1025E000CF911F910F910895CF93DF93EC01493064
:1025F000510510F048E050E04F8B9E01285E3F4FA0
:10260000C90150E00E945C7289859A85AB85BC85C2
:10261000806189879A87AB87BC878F8990E0DF913B
:10262000CF9108952F923F924F925F926F927F9237
:102630008F929F92AF92BF92CF92DF92EF92FF92D2
:102640000F931F93DF93CF9300D000D000D0CDB76E
:10265000DEB79C838B837A8369832A011901380151
:102660004701BE016F5F7F4F0E94390E7C018114CC
:10267000910409F454C0F40180811082610100E0EA
:1026800010E0282F332727FD30953E832D8342C04D
:10269000F101E00FF11F808190E02D813E818217D2
:1026A000930719F00615170599F55F01AC18BD08D9
:1026B00089819A81A2014E0D5F1DEB81FC81E81B8F
:1026C000F90BCF01B5010E941B0EE80EF91E920115
:1026D0002E0D3F1DC901B601A5010E945C72F401D7
:1026E00080818F5F80830F5F1F4F2B813C813A83F6
:1026F00029839101200F311F02C00F5F1F4F690115
:10270000F90180812F5F3F4F8F32B9F3EA0CFB1C38
:102710000F5F1F4F6016710608F0BACF1BC089818A
:102720009A81A2014E0D5F1D2B813C81281B390B24
:10273000C901B8010E941B0E8C010E0D1F1D9201D4
:10274000200F311FC901B101A3010E945C72780101
:10275000E60CF71CC70126960FB6F894DEBF0FBE35
:10276000CDBFCF91DF911F910F91FF90EF90DF9040
:10277000CF90BF90AF909F908F907F906F905F9021
:102780004F903F902F9008956F927F928F929F92DB
:10279000AF92BF92CF92DF92EF92FF920F931F936F
:1027A000CF93DF936C015B013A014901D9011D927E
:1027B0001C92DA010D900020E9F78D0101501040C4
:1027C000041B150BA80EB91E7C01E00EF11EEC01D6
:1027D0002CC0CC15DD0521F08A912196863209F5B1
:1027E000F70180818D33E9F4C301BE01A8010E9485
:1027F00089720097B1F40F5F1F4F0C0F1D1FA501C9
:10280000401B510BC80166E270E00E9442720097C3
:1028100009F4C501D4010D931C93AC01401B510B6D
:1028200009C021960894E11CF11CEA14FB0488F20B
:1028300040E050E0CA01DF91CF911F910F91FF90CE
:10284000EF90DF90CF90BF90AF909F908F907F9050
:102850006F900895DB019A01FC01EA59FF4F6081F6
:102860007181E656F0406115710519F420E030E001
:1028700008C0E859FF4F80819181AD010E94C413C7
:102880009C01C9010895DB019A01FC0181859285B3
:1028900080709078892B19F420E030E00AC0EF595D
:1028A000FF4F6191719180819181AD010E94C413AC
:1028B0009C01C9010895FC018AE6DF011D928A95F9
:1028C000E9F7748363834683308727830895EF9203
:1028D000FF920F93CF93DF93DC01EB0179018881A5
:1028E00099810097D9F0ED91FC911197E80FF91FAC
:1028F0000083288139812F5F3F4F398328838D9151
:102900009C91820F931FBA01A7010E946572888172
:1029100099818E0D9F1D9983888304C04D935C938C
:1029200039832883DF91CF910F91FF90EF90089525
:102930002F923F924F925F926F927F928F929F92CF
:10294000AF92BF92CF92DF92EF92FF920F931F93BD
:10295000DF93CF93CDB7DEB7A8970FB6F894DEBF5D
:102960000FBECDBF5B015A8B498B8FA398A78AE618
:10297000AFA1B8A51D928A95E9F7EFA1F8A57183DB
:102980006083DB014C9142954695469543704283A6
:102990008C9190E08073907054E0959587955A954E
:1029A000E1F7948383835C915F70558311968C91DA
:1029B0001197868312969C91129780E013962C9122
:1029C00030E0822B932B90878783413049F08DE54F
:1029D00097E09093E8078093E70720E830E0E2C2B1
:1029E000EFA1F8A51186128613861486FB01349692
:1029F000552309F4A7C238E1232E312C2FA138A585
:102A0000220E331E2A5D3F4F388B2F878FA198A54A
:102A100084969E878D87AFA1B8A59C96BC87AB870F
:102A20002FA138A5265D3F4F3A8729878FA198A50A
:102A3000C09698878F83AFA1B8A59E96BE83AD83BD
:102A400025E3422E512C2FA138A5420E531E93E4AC
:102A5000692E712C620E731E2D593F4F3C832B83C0
:102A60008FA198A58F599F4F9A838983992410E04D
:102A7000AFA1B8A5AB59BF4FBC8BAB8B8824839457
:102A80002FA138A52E5B3F4F3E8B2D8B8FA198A594
:102A9000855B9F4F988F8F8BAFA1B8A5A15BBF4F70
:102AA000BA8FA98F2FA138A5205B3F4F3C8F2B8F6A
:102AB0008FA198A58E5A9F4F9E8F8D8FAFA1B8A5DD
:102AC000AA5ABF4FB8A3AF8F2FA138A5265A3F4FA0
:102AD0003AA329A38FA198A5855A9F4F9CA38BA3A6
:102AE000AFA1B8A5A35ABF4FBEA3ADA324C2908186
:102AF000892F82958F70180F292F30E02F7030703A
:102B00002F30310531F079016F010894C11CD11CBF
:102B10000CC08181E82EFF242FE030E0E20EF31E8E
:102B200082E0C82ED12CCE0EDF1E612F81E090E016
:102B3000A0E0B0E0012E04C0880F991FAA1FBB1FA0
:102B40000A94D2F7EFA1F8A52185328543855485F3
:102B5000282B392B4A2B5B2B2187328743875487BD
:102B6000812F90E0FC013197E531F10508F0D4C1E7
:102B7000E057FF4FEE0FFF1F0590F491E02D0994F1
:102B800020E030E040E050E060E070E07EC120E016
:102B900030E040E050E060E070E028C160E070E0CC
:102BA00020E030E040E050E0B1C060E070E020E0C4
:102BB00030E040E050E07DC060E070E020E030E0D8
:102BC00040E050E031C060E070E020E030E040E004
:102BD00050E011C0542F432F322F2227F601E60F69
:102BE000F71F808190E0A0E0B0E0282B392B4A2B22
:102BF0005B2B6F5F7F4F6E157F0560F3EFA1F8A52C
:102C00003687258794C1542F432F322F2227F60170
:102C1000E60FF71F808190E0A0E0B0E0282B392B71
:102C20004A2B5B2B6F5F7F4F6E157F0560F3AFA163
:102C3000B8A51F962D933D934D935C93529777C102
:102C4000EFA1F8A5D68AC58AF48AE38A84E797E0DB
:102C50009093E8078093E70725EA30E0A3C1A70136
:102C6000F9E0EF16F10410F048E050E0AFA1B8A58C
:102C700057964C93C1015EC0EFA1F8A5D3A2C2A2A2
:102C8000F1A2E0A254C18F8598896D857E8529C007
:102C9000542F432F322F2227F601E60FF71F808192
:102CA00090E0A0E0B0E0282B392B4A2B5B2B6F5F24
:102CB0007F4F6E157F0560F3AFA1B8A599963C9341
:102CC0002E93989734C18B859C8569857A85A6015A
:102CD000970106E20E9467142AC18F8198856D8151
:102CE0007E81A60197010FE2F5CF542F432F322F9B
:102CF0002227F601E60FF71F808190E0A0E0B0E008
:102D0000282B392B4A2B5B2B6F5F7F4F6E157F056E
:102D100060F3EFA1F8A533AB22AB09C1A701F9E03D
:102D2000EF16F10410F048E050E0AFA1B8A5D4963A
:102D30004C93C201B60150E00E945C72F8C0EFA152
:102D4000F8A505AD023008F0F2C060E070E020E0C8
:102D500030E040E050E011C0542F432F322F2227A3
:102D6000F601E60FF71F808190E0A0E0B0E0282B8D
:102D7000392B4A2B5B2B6F5F7F4F6E157F0560F3FE
:102D8000E02FF0E07F96EE0FFF1F8FA198A5E80FD0
:102D9000F91F31832083AFA1B8A5DD968C91DD9713
:102DA0008F5FDD968C93C3C0A701B9E0EB16F104E9
:102DB00010F048E050E0ED89FE894083C301BACFAE
:102DC0008B819C8169817A8182CF762F652F542FE8
:102DD0004427F601E20FF31F808190E0A0E0B0E00D
:102DE000482B592B6A2B7B2B2F5F3F4F2E153F050E
:102DF00060F39A01DB01CA0188709070A070B07016
:102E000003E0B695A795979587950A95D1F7E98D33
:102E1000FA8D80832770307080E190E002C0880FC7
:102E2000991F2A95E2F7AB8DBC8D8D939C93DB01A6
:102E3000CA01807F9A012770307004C0880F991FE3
:102E4000AA1FBB1F2A95D2F7ED8DFE8D808391833B
:102E5000A283B383A4E07695679557954795AA9585
:102E6000D1F7AF89B88D4EC0762F652F542F4427E8
:102E7000F601E20FF31F808190E0A0E0B0E0482B64
:102E8000592B6A2B7B2B2F5F3F4F2E153F0560F38D
:102E90009A01DB01CA0188709070A070B070E3E005
:102EA000B695A79597958795EA95D1F7E9A1FAA1E7
:102EB00080832770307080E190E002C0880F991FF6
:102EC0002A95E2F7ABA1BCA18D939C93DB01CA01CB
:102ED000807F9A012770307004C0880F991FAA1F45
:102EE000BB1F2A95D2F7EDA1FEA180839183A28317
:102EF000B38304E076956795579547950A95D1F782
:102F0000AF8DB8A14D935D936D937C9313970FC0D4
:102F1000EB89FC8980820BC060FF09C08BE997E0D8
:102F20009093E8078093E70722E830E03BC0F60182
:102F3000EE0DFF1D9394AFA1B8A515968C91981630
:102F400008F4D5CD2FA138A528593F4FD9011196A6
:102F5000FC93EE93A856B040B8A7AFA3C5018E1B53
:102F60009F0BE989FA898E0F9F1FFD01EA59FF4FD8
:102F7000918380838134910520F080E490E09183F7
:102F800080832FA138A528593F4F38A72FA3D901F7
:102F9000ED91FC9111979E918E91E80FF91F10828F
:102FA00020E030E0C901A8960FB6F894DEBF0FBE4E
:102FB000CDBFCF91DF911F910F91FF90EF90DF90E8
:102FC000CF90BF90AF909F908F907F906F905F90C9
:102FD0004F903F902F9008952F923F924F925F9283
:102FE0006F927F928F929F92AF92BF92CF92DF9219
:102FF000EF92FF920F931F93DF93CF930F92CDB772
:10300000DEB71B016C01DC0111967C936E9381E0AD
:1030100012968C93129715961C92159744E0442EA5
:10302000512C460E571E19968C9181FD03C0AA247F
:10303000BB2418C0F6010585168520E030E081E04C
:1030400090E060E070E0A2010E94790E480E591EE7
:10305000D60115968C9115978F5F15968C9331E05C
:10306000A32EB12CF601818582FF16C00785108939
:103070002189328982E090E0B501A2010E94790E97
:10308000480E591ED60115968C9115978F5F15968F
:103090008C9322E0A22EB12CF601818583FF30C0F3
:1030A000838894886624772428C0D60155962D916C
:1030B0003C915697260D371D8401BFE08B16B1E079
:1030C0009B0614F00EE011E083E090E0B501A20150
:1030D000EE24FF240E941213480E591EF60185812A
:1030E0008F5F858322EF3EEF820E931E8EE091E08C
:1030F000680E791E93E0A92EB12C18141904ACF2B5
:10310000D60119968C91199784FF17C09601285EF5
:103110003F4F57960C9184E090E0B501A20110E07A
:10312000EE24FF240E941213480E591EF6018581D9
:103130008F5F858384E0A82EB12CD60119968C91DF
:10314000199785FF19C092962D913C91939790966F
:103150000D911C91919785E090E0B501A201EE24BC
:10316000FF240E941213480E591EF60185818F5FBD
:10317000858305E0A02EB12CD60119968C91199764
:1031800086FF1EC08FE2898396962D913C9197977A
:1031900094960D911C91959786E090E0B501A2015F
:1031A0007E010894E11CF11C0E941213480E591E66
:1031B000F60185819981890F858316E0A12EB12CB6
:1031C000D60119968C91199787FF15C098960D9185
:1031D0001C91999720E030E087E090E0B501A201D2
:1031E0000E94790E480E591EF60185818F5F8583F6
:1031F000B7E0AB2EB12CF60181859285A385B4850D
:1032000090FF1DC086E2898324A535A502A513A5DC
:1032100088E090E0B501A2017E010894E11CF11C58
:103220000E941213480E591ED60115968C911597BF
:103230009981890F15968C93A8E0AA2EB12CF601DE
:1032400081859285A385B48591FF1DC08FE2898316
:1032500020A931A906A517A589E090E0B501A20132
:103260007E010894E11CF11C0E941213480E591EA5
:10327000D60115968C9115979981890F15968C9387
:10328000F9E0AF2EB12CF60181859285A385B48536
:1032900092FF16C002A913A920E030E08AE090E076
:1032A000B501A2010E94790E480E591ED60115964D
:1032B0008C9115978F5F15968C93EAE0AE2EB12C0A
:1032C000F60181859285A385B48593FF19C0960187
:1032D0002B5C3F4F04A98BE090E0B501A20110E008
:1032E000EE24FF240E941213480E591ED601159693
:1032F0008C9115978F5F15968C937BE0A72EB12C40
:10330000F60181859285A385B48594FF27C06EE37D
:10331000862E912C8C0C9D1CEE24FF2418C0D40109
:103320000D911D914D0120E030E08CE090E0B50161
:10333000A2010E94790E480E591EF60185818F5F09
:1033400085830894E11CF11C5CE0A52EB12CD6010C
:10335000DD968C9190E0E816F9060CF3F601818574
:103360009285A385B48595FF22C096012D5B3F4FC2
:1033700082E490E0C80ED91ED6010C91EEEBFFEF6F
:10338000CE0EDF1E8DE090E0B501A20110E0EE242C
:10339000FF240E941213480E591ED60115968C91D7
:1033A00015978F5F15968C934DE0A42EB12CF601E6
:1033B0008185928580709078892B81F186E289835E
:1033C00023E630E0C20ED31ED6012D913C91F601CA
:1033D000129102916F018FE99FEFC80ED91E8FE005
:1033E00090E0B501A2017E010894E11CF11C0E944D
:1033F0001213480E591E2981D60115968C91280F5B
:103400008FE090E08A199B096EE070E00E94847161
:10341000260FF60125833FE0A32EB12CF60181850E
:103420009285A385B485A1FF63C02BE430E0C20E72
:10343000D31ED6016D907D908D909D906D0124E0FE
:10344000660C771C881C991C2A95D1F78C91E1EBAE
:10345000FFEFCE0EDF1E882341F088E090E0A0E071
:10346000B0E0682A792A8A2A9B2AA0E5B0E0CA0E31
:10347000DB1EF6016081718120EB3FEFC20ED31E8F
:1034800094E0769567959A95E1F740E050E076955F
:103490006795CA010196FA01AC0161157105B9F78A
:1034A000009709F0CF018C0120E030E00F70107020
:1034B00020703070062917292829392981E190E0E8
:1034C000B501A2010E94790E480E591ED60115962B
:1034D0002C912F5F81E190E08A199B096EE070E0EA
:1034E0000E948471260FF601258301E1A02EB12CE4
:1034F000F60181859285A385B485A3FF63C026E587
:1035000030E0C20ED31ED6016D907D908D909D90BF
:103510006D0114E0660C771C881C991C1A95D1F774
:103520008C91E6EAFFEFCE0EDF1E882341F088E0A3
:1035300090E0A0E0B0E0682A792A8A2A9B2AABE5CD
:10354000B0E0CA0EDB1EF6016081718125EA3FEF13
:10355000C20ED31EF4E076956795FA95E1F740E048
:1035600050E076956795CA010196FA01AC016115A4
:103570007105B9F7009709F0CF018C0120E030E028
:103580000F701070207030700629172928293929EA
:1035900083E190E0B501A2010E94790E480E591E08
:1035A000D60115962C912F5F83E190E08A199B0933
:1035B0006EE070E00E948471260FF601258363E1BE
:1035C000A62EB12CF60181859285A385B485A5FF31
:1035D0001BC085E190E0B501A20100E010E020E011
:1035E00030E00E94790E480E591ED60115962C9196
:1035F0002F5F85E190E08A199B096EE070E00E94E0
:103600008471260FF6012583D6018D919C91F201DC
:10361000E81BF90BE033F1050CF058C028E630E068
:10362000C20ED31ED6016D917C91E8E9FFEFCE0E5C
:10363000DF1E86010A591F4FD8014D915C91C201CE
:103640000E946572D601ED91FC9111971082ED9167
:10365000FC91119712968C9112978295880F880F82
:10366000807C9081892B8083ED91FC91119713963A
:103670009C911397929590738081892B8083ED9113
:10368000FC91119715969C9115979F708081892BBD
:103690008083ED91FC91119716968C9116978183FA
:1036A000ED91FC91119718968C9118978283ED916A
:1036B000FC91119717968C918383A20142195309AB
:1036C000F80180819181480F591F0BC0D6011D92CE
:1036D0001C9287EB97E09093E8078093E70740E020
:1036E00050E0CA010F90CF91DF911F910F91FF9091
:1036F000EF90DF90CF90BF90AF909F908F907F9092
:103700006F905F904F903F902F9008950F931F936D
:10371000CF93DF938901E091390BF0913A0BEF01E0
:10372000DC0180E10D9009928150E1F7738B628B8F
:10373000CF01BA01A8010E946650E091390BF091C7
:103740003A0B80E1DF011D928A95E9F7E091390B90
:10375000F0913A0B138A128ADF91CF911F910F914A
:1037600008950F931F938C0180E090E060E070E07B
:1037700040E050E00E94DA4FFC0190933A0B8093B6
:10378000390B118B008B0E94E23E90933C0B80938F
:103790003B0B1F910F9108958091480D9091490D19
:1037A0009093400B80933F0B0895CF93DF93EC01F0
:1037B0008DE39BE00E942638FC0108C08281938142
:1037C0008C179D0729F00190F081E02D3097B1F71B
:1037D000CF01DF91CF910895CF93DF93EC01009754
:1037E00069F004960E9462398DE39BE0BE010E945D
:1037F000743889EE97E0BE010E945E37DF91CF9169
:103800000895CF92DF92EF92FF920F931F93CF9381
:10381000DF93EC013DE0C32ED12CC80ED91E6D8D77
:103820007E8DAC014B5D5F4F2BA13CA1C6010E9478
:10383000861B8DA18073F1F58C85843030F588234B
:1038400049F40E94E23E61E870E00E94707180508D
:103850009F4F04C08E819F81880F991F9F838E8305
:103860000091480D1091490D80913F0B9091400BB4
:103870009093490D8093480DCE0104960E944E3AD4
:103880001093490D0093480D18C00F8D18A1E9A0A1
:10389000FAA06D8D7E8DC6010E94151ECE010E947C
:1038A000EC1B0115110549F0C70160E070E0F8015B
:1038B000099503C0CE010E94EC1BDF91CF911F91AF
:1038C0000F91FF90EF90DF90CF900895CF93DF930B
:1038D0008DE39BE00E942638EC010FC0CE010496D8
:1038E0000E94FD38892B31F08C858F5F8C87CE014B
:1038F0000E94011C0990D881C02D209779F7DF9193
:10390000CF910895CF92DF92EF92FF920F931F9382
:10391000CF93DF938C01D62EC72E7A0189EE97E0E4
:103920000E943037EC010097A9F01B830A831C86A4
:10393000DC011D968D2D9C2D9C01F90180E10190EB
:103940000D928150E1F7FE8EED8E8DE39BE0BE017E
:103950000E94AF38CE01DF91CF911F910F91FF9060
:10396000EF90DF90CF9008955F926F927F928F9249
:103970009F92AF92BF92CF92DF92EF92FF920F93FE
:103980001F93CF93DF933C018B017A01FA0153809F
:103990008DE79CE00E942638EC014801AA24BB2454
:1039A0004DC02A813B81F301848195812817390715
:1039B00009F041C00E94FD0EBE016C5F7F4F4C8933
:1039C0005D890E94821C6C010097A9F1FC01828133
:1039D000938198A38F8F82819381F701908787834A
:1039E000C701B501A4010E947D10BE01695E7F4F31
:1039F0004E89C70150E00E94AF128E010F5D1F4F2C
:103A0000C8010E94DB3C892B39F0F7011482138234
:103A1000C8010E94043D03C0F70153821482B6011D
:103A20006B5D7F4FC7010E94EC17F60194A383A33F
:103A3000C6010E94011C0990D881C02D209709F071
:103A4000B0CFDF91CF911F910F91FF90EF90DF905A
:103A5000CF90BF90AF909F908F907F906F905F902E
:103A600008950F931F938C018EE098E0B8010E9497
:103A70005E378DE79CE0B8010E9474381F910F916A
:103A80000895AF92BF92CF92DF92EF92FF920F9381
:103A90001F93CF93DF935C016B017A018DE79CE06C
:103AA0000E942638EC0100E010E01BC0CE01049615
:103AB000B50140E150E00E944F72009779F48C8983
:103AC0009D898C159D0551F48F8D98A18E159F05AC
:103AD00029F4CE010E94311D0F5F1F4F0990D8813C
:103AE000C02D209719F7C801DF91CF911F910F9139
:103AF000FF90EF90DF90CF90BF90AF900895AF927E
:103B0000BF92CF92DF92EF92FF920F931F93CF93CA
:103B1000DF935C016B017A018DE79CE00E942638FF
:103B2000EC0100E010E028C0CE010496B50140E1B0
:103B300050E00E944F720097E1F48C899D898C15AA
:103B40009D05B9F48A819B818E159F0569F0DC0182
:103B50000D900020E9F71197A81BB90BB701AD0133
:103B60000E944F72009729F4CE010E94311D0F5F11
:103B70001F4F0990D881C02D2097B1F6C801DF9161
:103B8000CF911F910F91FF90EF90DF90CF90BF905A
:103B9000AF9008958F929F92AF92BF92CF92DF9293
:103BA000EF92FF920F931F93CF93DF934C015B0132
:103BB0006A0179018DE79CE00E942638EC0100E063
:103BC00010E023C0CE010496B40140E150E00E9411
:103BD0004F720097B9F48C899D898A159B0591F4E1
:103BE0008E8990E08E159F0569F4CE014796B60147
:103BF000A7010E944F72009729F4CE010E94311D47
:103C00000F5F1F4F0990D881C02D2097D9F6C801AA
:103C1000DF91CF911F910F91FF90EF90DF90CF90A8
:103C2000BF90AF909F908F900895CF92DF92EF92C8
:103C3000FF920F931F93CF93DF936C017B018DE76E
:103C40009CE00E942638EC0100E010E016C0CE0196
:103C50000496B60140E150E00E944F72009751F483
:103C60008C899D898E159F0529F4CE010E94311DF6
:103C70000F5F1F4F0990D881C02D209741F7C801D1
:103C8000DF91CF911F910F91FF90EF90DF90CF9038
:103C900008958F929F92AF92BF92CF92DF92EF9250
:103CA000FF920F931F93CF93DF93D82EC92E7B01E2
:103CB000A42E952EB22E832EA8010E947F1D8EE089
:103CC00098E00E943037EC01009749F11B830A838A
:103CD000DC0114968D2D9C2D9C01F90180E1019051
:103CE0000D928150E1F7FD8AEC8ABE8A9E01295E21
:103CF0003F4FC9016A2D792D4B2D582D0E945C72C2
:103D000018A21F8ECE0181964CE350E060E070E077
:103D10000E94113D8DE79CE0BE010E94AF38CE01AC
:103D2000DF91CF911F910F91FF90EF90DF90CF9097
:103D3000BF90AF909F908F900895EF92FF920F9356
:103D40001F93CF93DF939C01EB018E81813009F0AB
:103D500070C07A01DA0116968C9187FD6AC0498598
:103D60005A856B857C85E0917D12D90114960D9161
:103D70001C91159752FF53C0F0E0E35DFA4D60814E
:103D800071812CA98DE095E2E596AE0130E00E94AC
:103D9000491E892BC1F1C70140E050E060E070E0AE
:103DA0000E947D108DE79CE00E94D238EDB7FEB7EF
:103DB0003A970FB6F894FEBF0FBEEDBF31960DE6F1
:103DC0001CE0ADB7BEB712961C930E93119720E17D
:103DD00030E03383228321EF37E0358324839783D8
:103DE000868381E090E0918780870E942373AC01F5
:103DF000EDB7FEB73A960FB6F894FEBF0FBEEDBF13
:103E0000C701B80109C083EAD70116968C93C70190
:103E10006DEF77E040E150E00E94A0110AC0F0E0B1
:103E2000E35DFA4D608171818DE095E2A8010E9409
:103E30007F1DDF91CF911F910F91FF90EF9008951B
:103E400083EA90E09093380B8093370B86E198E0FB
:103E50009093E8078093E70708950F931F93CF93FC
:103E6000DF938C01EB016A897B892C893D890E9453
:103E70005B144E89442331F06796C801BE0150E0BF
:103E80000E94AF12DF91CF911F910F9108956F9211
:103E90007F928F929F92AF92BF92CF92DF92EF92DA
:103EA000FF920F931F93DF93CF93CDB7DEB7CA5620
:103EB000D0400FB6F894DEBF0FBECDBF4B015C0102
:103EC000FC01878190850E94D51B3C01009719F465
:103ED00020E030E075C0F50183819481892B11F5D4
:103EE000278130856E010894C11CD11CC60162E097
:103EF00070E040E00E945B14E0917D12F0E0E35D31
:103F0000FA4DE080F18000910A2A10910B2AC60137
:103F1000B8010E94EC179C018DE095E2B701A80161
:103F20000E94861BD401F3013D9680E101900D9221
:103F30008150E1F7F301858D968DF401918B808B93
:103F400020E030E0F50183819481892B11F021E09C
:103F500030E0F401338B228B0E94FD0EF401958B2F
:103F6000848B9401295E3F4FF50144A9F596C90160
:103F7000BF0150E00E945C72F50184A9F401868BB8
:103F80008BE490E0A80EB91EF50180819181A28199
:103F9000B381F401878F90A3A1A3B2A385E090E041
:103FA000A80EB91EF50180819181F40194A383A329
:103FB00082EC90E09093380B8093370B21E030E057
:103FC000C901C659DF4F0FB6F894DEBF0FBECDBF93
:103FD000CF91DF911F910F91FF90EF90DF90CF90E5
:103FE000BF90AF909F908F907F906F9008958BEAD5
:103FF0009CE00895FC01868597850895FC017787EC
:1040000066870895FC01738762870895FC017587B0
:1040100064870895FC0182819381862B972B93837B
:1040200082830895EF92FF920F931F93CF93DF93B4
:104030007C01FC01808191818D3C910591F0893D4D
:10404000910589F1892B09F056C08091480D909116
:10405000490D65E840E050E00E949E368DEC90E00E
:104060001DC06538F1F489EA9CE00E942638EC0115
:1040700011C02C813D814E815F81211531054105A3
:10408000510529F0CE010896B9010E94643A0990C1
:10409000D881C02D209769F789ED90E0F7019183D1
:1040A000808381E02CC06838B9F789EA9CE00E94DF
:1040B0002638EC011DC08C819D81AE81BF810097A7
:1040C000A105B10591F08E01085F1F4FC8010E9444
:1040D000FD38892B51F0E889F989309719F08A81E8
:1040E0009B810995C8010E94593A0990D881C02D39
:1040F000209709F7D1CFF7011182108283E0DF9179
:10410000CF911F910F91FF90EF9008952F923F92C2
:104110004F925F926F927F928F929F92AF92BF92D7
:10412000CF92DF92EF92FF920F931F93DF93CF9383
:1041300000D0CDB7DEB76C015B013A01290118014F
:104140001A8219828BEA9CE00E9426387C01009139
:10415000DD061091DE064E010894811C911C7BC087
:10416000C601B401F8010995F701A481B581FD01EB
:1041700001900020E9F73197EA1BFB0B8E179F0790
:10418000B9F0C601B401F8010995F701A481B58120
:10419000FD0101900020E9F73197EA1BFB0BE817BE
:1041A000F90708F055C0D70112968C9187FF50C0CF
:1041B000F70184819581FC01DF010D900020E9F772
:1041C0001197AE1BBF0B69817A81AD010E94897284
:1041D0000097F1F5E091E106F091E206C60109953C
:1041E000D70112962D913C91139728233923232B25
:1041F00019F11A96ED91FC911B97309731F0C70198
:10420000B601A5010995892B59F1D7011896ED91B1
:10421000FC911997C601B501A3019201810109958D
:10422000D7011C96ED91FC911D973097C9F0C701FD
:10423000B601A501099514C060911F077091200770
:10424000E091E306F091E406C501099580E009C01C
:10425000F701E080F180E114F10409F081CF19C089
:1042600081E091E0892390E00F900F90CF91DF9152
:104270001F910F91FF90EF90DF90CF90BF90AF9084
:104280009F908F907F906F905F904F903F902F9076
:10429000089560911D0770911E07E091E306F0916B
:1042A000E406C501099590E080E0DCCFFC01828541
:1042B0009385892B31F480910707909108079387A4
:1042C000828784859585892B31F4809109079091A7
:1042D0000A07958784878BEA9CE0BF010E94AF386C
:1042E00008950F931F938C010E945621809105071A
:1042F00090910607F801958784871F910F91089583
:104300000F931F938C0189EA9CE0B8010E94AF389B
:10431000D80112968D919C9113970E945621D80135
:104320001296ED91FC9113978091050790910607E5
:10433000958784871F910F9108958BEA9CE00E94D6
:104340002238E091DB06F091DC0686E890E20995E0
:10435000E091D906F091DA06099580E398E060E0F3
:1043600070E00E94D1360895E6E4F1E0208190816A
:10437000308180818295869586958370207C820F1E
:10438000969596959073890F32953C70830F08959A
:1043900000D000D000D0EDB7FEB731962AE431E06E
:1043A000ADB7BEB712963C932E9311979383828339
:1043B000758364830E94CB728DB79EB706960FB645
:1043C000F8949EBF0FBE8DBF08954F925F926F927B
:1043D0007F928F929F92BF92CF92DF92EF92FF9245
:1043E0000F931F93CF93DF937C01BB2410E02DED3F
:1043F000422E21E0522E90EE692E91E0792E82EE2F
:10440000882E81E0982EF701D081C0E081816E0175
:10441000C80ED11CC114D10499F417FD11C0012F8D
:104420000F5F112311F0102F28C000D0EDB7FEB799
:10443000928281820E94CB72102F0F900F901DC02C
:10444000111614F41FEF0BC0BB2049F000D0EDB7DC
:10445000FEB7728261820E94CB720F900F9000D0E3
:1044600000D0EDB7FEB752824182D482C3820E944F
:10447000CB720F900F900F900F90F2E0BF0E82E082
:1044800090E0E80EF91E90E1B91609F0BCCFDF917B
:10449000CF911F910F91FF90EF90DF90CF90BF9041
:1044A0009F908F907F906F905F904F90089560E005
:1044B00070E048E050E00E94677581E00895BF9287
:1044C000CF92DF92EF92FF920F931F93DF93CF93E0
:1044D000CDB7DEB728970FB6F894DEBF0FBECDBFBD
:1044E0000E943B2A0E94472A81E068E046E00E9441
:1044F000BE2981E00E94322A0E94002884B784B736
:1045000084B784B784B7E9E0F1E322E432E431838D
:1045100020833A968DB79EB70A97E817F907B8F344
:1045200000D000D08CE392E0ADB7BEB712969C935A
:104530008E9311978AE398E014969C938E93139729
:104540000E94CB720F900F900F900F900E948B3CA7
:104550000E94FD3585E899E060E070E00E94D13668
:104560000E949D3BE0911B09F0911C0909958E0169
:104570000F5F1F4F88E0F80111928A95E9F7C80193
:1045800060E070E048E050E00E946775ADEFB4E293
:10459000F80188E001900D928150E1F77E010894C6
:1045A000E11CF11CC7010E9472330E944D258C0151
:1045B0000E944825BC01C801A7010E94B02B0E949F
:1045C0005C250E946D2E0E9443250E946A2E2DB705
:1045D0003EB7225130400FB6F8943EBF0FBE2DBFFC
:1045E000EDB7FEB7319687E192E0ADB7BEB7129650
:1045F0009C938E9311978981828313828A8184830D
:1046000015828B81868317828C81808711868D81AC
:10461000828713868E81848715868F818687178689
:104620008885808B118A0E94CB72EDB7FEB7729697
:104630000FB6F894FEBF0FBEEDBF0E94D841E091C7
:104640006709F09168090995E0915109F0915209C3
:104650000995E091FC09F091FD090995C0904F0979
:10466000D0905009E0906509F09066090E94AD2B4A
:10467000B82E0091730910917409F8010995892BDE
:1046800019F400E810E008C0F8010995BC0180E8C1
:1046900090E00E9470718B010E942F2C2DB73EB7C5
:1046A0002C5030400FB6F8943EBF0FBE2DBFEDB773
:1046B000FEB7319625EE31E0ADB7BEB712963C930A
:1046C0002E931197D382C282F582E482B68217823A
:1046D00011870087828713860E94CB72EDB7FEB7E1
:1046E0003C960FB6F894FEBF0FBEEDBF8FEC99E07D
:1046F00060E070E00E94D1360E94FA2572988CEE3C
:1047000098E060E070E00E94D136E091E008F0911E
:10471000E10881E890E061E070E009958EE396E0C1
:104720000E94213728960FB6F894DEBF0FBECDBF8A
:10473000CF91DF911F910F91FF90EF90DF90CF907D
:10474000BF9008952F923F924F925F926F927F9207
:104750008F929F92AF92BF92CF92DF92EF92FF9291
:104760000F931F93CF93DF930E945F22FEE22F2EC1
:10477000312CEAE86E2EE1E07E2E72E8472E71E0E1
:10478000572E6DE6862E61E0962E59E7A52E51E054
:10479000B52E46EAC42E41E0D42E0E942C360E944B
:1047A000532AE0904D22F0904E2200914F2210911A
:1047B00050220E941D28E616F7060807190769F31C
:1047C0000E941D2860934D2270934E2280934F22A9
:1047D000909350222CE330E040E050E00E9497712B
:1047E000611571058105910511F40E94233D6091C9
:1047F0004D2270914E2280914F229091502228E5B7
:1048000032E040E050E00E9497716230710581050E
:10481000910509F004C100D000D0E8ECF1E0ADB79B
:10482000BEB71296FC93EE93119784E090E0149635
:104830009C938E9313970E94CB7202EE1BE2C0E012
:10484000D0E00F900F900F900F903CE1E32EF12CF1
:10485000D8018C918823B1F0CE9DC001CF9D900DE1
:10486000DE9D900D11248D51944D0E94E52100D0C4
:1048700026EC31E0EDB7FEB7328321830E94CB7284
:104880000F900F902196045E1F4FC430D10501F7A1
:1048900000D000D0E1EBF1E0ADB7BEB71296FC93CB
:1048A000EE9311978AE090E014969C938E93139761
:1048B0000E94CB720FE41DE291E0C0E0D0E00F90C7
:1048C0000F900F900F90D8018C918823D9F0E0E3DE
:1048D000F0E0CE9FC001CF9F900DDE9F900D112480
:1048E000805B924D0E94E52100D0EFEAF1E0ADB788
:1048F000BEB71296FC93EE9311970E94CB7290E094
:104900000F900F902196005D1F4FCA30D105D9F648
:10491000992359F000D0ADB7BEB71296DC92CE9273
:1049200011970E94CB720F900F9000D000D024E915
:1049300031E0EDB7FEB7328321838AE090E09483C3
:1049400083830E94CB72C7E3DFE291E0EE24FF2471
:104950000F900F900F900F908881882309F440C02A
:10496000E29C8001E39C100DF29C100D1124C80103
:10497000885C904D0E94E52100D000D0EDB7FEB7D5
:104980003196ADB7BEB712967C926E921197898917
:10499000828313820E94CB720F900F900F900F9022
:1049A000C801865B904D0E94E52100D000D000D068
:1049B000EDB7FEB7528241828BA19CA1ADA1BEA1F1
:1049C00083839483A583B6830E94CB7290E02DB736
:1049D0003EB72A5F3F4F0FB6F8943EBF0FBE2DBFC4
:1049E0000894E11CF11CAE963AE0E316F10409F0DC
:1049F000B3CF992359F000D0ADB7BEB71296BC9291
:104A0000AE9211970E94CB720F900F9000D0EDB72D
:104A1000FEB7928281820E94CB720F900F9080919C
:104A20004D2290914E22A0914F22B091502293702E
:104A3000A070B0700397A105B10509F0AECEE9E012
:104A4000F1E38081918182549244B9F000D000D08A
:104A500020E531E0ADB7BEB712963C932E93119787
:104A6000E950F1431496FC93EE9313970E94CB7296
:104A70000F900F900F900F9090CE3A9631E4E53F53
:104A8000F307F8F28ACE8EE590E00E9477750895DC
:104A90008CE590E00E947F7508958AE590E00E9481
:104AA0007F750895F89466E370E048E050E00E9456
:104AB0006775789480E008950F931F93DF93CF93E9
:104AC000CDB7DEB7A2970FB6F894DEBF0FBECDBF4D
:104AD00088E590E00E947F7589839A83982F8B5098
:104AE000803108F09A838A818095981709F476C0FE
:104AF00000D087E792E0EDB7FEB7928381830E94F2
:104B0000CB7280E090E00F900F909E012D5F3F4FA1
:104B1000FC01E95AFD4FE491D901A80FB91FEC93AC
:104B2000019688309105A1F7F8948E010D5F1F4F13
:104B3000C80166E370E048E050E00E94857520E01F
:104B400030E0C801F901E15AFD4FE491DC01A20F08
:104B5000B31FEC932F5F3F4F2E30310599F76EE373
:104B600070E04EE050E00E94857520E030E0CE011C
:104B70000396F901E359FD4FE491DC01A20FB31F45
:104B8000EC932F5F3F4F2A30310599F76CE470E0CA
:104B90004AE050E00E9485758AE590E06DEC7BEA82
:104BA0000E949D758CE590E060E070E00E949D752C
:104BB0008EE590E060E00E948F7586E590E060E011
:104BC00070E00E949D758AE1898385EE8A83698100
:104BD0007A8188E590E00E949D7578948981A296FB
:104BE0000FB6F894DEBF0FBECDBFCF91DF911F91FE
:104BF0000F9108958DB18C618DB98EB18C618EB994
:104C00000895749902C084E001C080E09EB1739958
:104C100002C022E001C020E0969596959095917093
:104C2000892B822B089580FF02C0729801C0729A6E
:104C300081FF02C0739801C0739A82FF02C074980A
:104C40000895749A089581E090E0089581E090E0DD
:104C500008950E94A26D089581589040029718F01F
:104C600020E030E004C02091AD0C3091AE0CC901C1
:104C700008950F931F93CF93DF938C01EB0100D026
:104C800000D000D0EDB7FEB7319683E798E0ADB71E
:104C9000BEB712969C938E931197138302837583EC
:104CA00064830E94B9728DB79EB706960FB6F894CA
:104CB0009EBF0FBE8DBF0138110519F020E030E016
:104CC00036C0CD2B31F18091AD0C9091AE0C892B7B
:104CD000E9F48FEA9CE060E070E00E9414388BE910
:104CE00098E00E94EE728DB18DB9759A80916A003C
:104CF000886080936A0084E00E94952BED9A81E0A1
:104D000090E09093AE0C8093AD0C789480EB98E09B
:104D10000AC01092AE0C1092AD0CED9884E00E9487
:104D20008A2B81EC98E00E94EE7221E030E0C9010C
:104D3000DF91CF911F910F910895759B08C08FEA65
:104D40009CE00E94F13720E030E0892B11F421E053
:104D500030E0C90108951F920F920FB60F920BB663
:104D60000F9211242F933F934F935F936F937F93F1
:104D70008F939F93AF93BF93EF93FF9382E00E9433
:104D80007E2B8CB3857081F48FEA9CE00E94F13712
:104D9000892B51F08FEA9CE060E270E00E941438A9
:104DA0008CED98E00E94E327FF91EF91BF91AF91C6
:104DB0009F918F917F916F915F914F913F912F9133
:104DC0000F900BBE0F900FBE0F901F901895809103
:104DD0005B0890915C080895AC018091B70C282F76
:104DE00030E0ABE5B8E0E0E0F0E006C08D919D91E9
:104DF0008417950721F03196E217F307BCF3EE0F05
:104E0000FF1FE35AF74F808191810895CF93DF937D
:104E1000EC01888199818A379105B9F18138910532
:104E200009F456C0892B09F085C00E94543580933F
:104E300051221092B60C1092B50C14C0A55BBD4D5A
:104E40001C920480F581E02D80E890E060E070E045
:104E500009958091B50C9091B60C01969093B60C83
:104E60008093B50CA091B50CB091B60CFD01EE0F7E
:104E7000FF1FE55AF74F0190F081E02D3097F1F6D2
:104E8000A093B70C8AE790E01FC01092B40C109268
:104E9000B30C1092B60C1092B50C39C0FD01E55B55
:104EA000FD4D808187FF2AC0AA0FBB1FA55AB74FAF
:104EB0004D915C9180E090E0609151220E949E367D
:104EC000892B51F481E890E09983888381E035C093
:104ED000809151226817D1F7E091B50CF091B60C92
:104EE000E55BFD4D80818F7780838091B30C90913D
:104EF000B40C01969093B40C8093B30C8091B50CD4
:104F00009091B60C01969093B60C8093B50CA0913D
:104F1000B50CB091B60C8091B70C90E0A817B9070A
:104F20000CF4BCCF8091B30C9091B40C892B09F098
:104F3000ACCFA8CF1982188283E0DF91CF9108957A
:104F40008F929F92AF92BF92CF92DF92EF92FF9299
:104F50000F931F93CF93DF934C01DC010D90002042
:104F6000E9F78D0101501040081B190B8091B70C17
:104F7000A82EBB243BE5C32E38E0D32EEE24FF241D
:104F80000FC0F601C191D1916F0168817981C4018F
:104F9000A8010E948972009741F00894E11CF11C5D
:104FA000EA14FB0474F3C0E0D0E0CE01DF91CF91AE
:104FB0001F910F91FF90EF90DF90CF90BF90AF9037
:104FC0009F908F900895AC018091B70C282F30E00E
:104FD000ABE5B8E0E0E0F0E006C08D919D9184176C
:104FE000950721F03196E217F307BCF3E55BFD4D21
:104FF0008081806880838CEE98E00E94FE36089560
:10500000F8941092B60016BC83EF87BD92E094BD71
:1050100084E085BD85B385BB90936E007894089538
:105020002091B80C3091B90C8091B80C9091B90CCA
:1050300028173907A9F7C901089520915A223091FC
:105040005B2240915C2250915D2280915A22909186
:105050005B22A0915C22B0915D22281739074A0794
:105060005B0759F7B901CA01089560935A227093FA
:105070005B2280935C2290935D220895AC01209185
:10508000B80C3091B90C8091B80C9091B90C2817DC
:105090003907A9F7420F531F2091B80C3091B90C72
:1050A0008091B80C9091B90C28173907A9F7241BE7
:1050B000350B37FDF1CF08958430910548F0039703
:1050C000880F991F880F991F969587950197F1F77B
:1050D0000895CF93DF93EC0184EE93E005C00E9426
:1050E0005C28219787EE93E02097C9F7DF91CF9155
:1050F0000895EF92FF920F931F937FB7F89420913A
:10510000B80C3091B90C280F391F3093B90C20938B
:10511000B80C2091BA0CAC01420F511D6091FE23D6
:10512000E0905622F0905722009158221091592277
:105130009A012AC080915A2290915B22A0915C2210
:10514000B0915D220196A11DB11D80935A229093CA
:105150005B22A0935C22B0935D22662399F080913C
:10516000522290915322A0915422B091552201963F
:10517000A11DB11D8093522290935322A0935422DB
:10518000B0935522205830402038310598F69A01C6
:10519000220F232F221F330B3195C901A0E0B0E06D
:1051A0008E0D9F1DA01FB11F8093562290935722F2
:1051B000A0935822B09359223695322F2227379543
:1051C0002795421B530B4093BA0C7FBF1F910F9141
:1051D000FF90EF9008951F920F920FB60F920BB6AB
:1051E0000F9211242F933F934F935F936F937F936D
:1051F0008F939F93AF93BF93EF93FF938091B80CDE
:105200009091B90C01969093B90C8093B80C809151
:10521000BA0C8F5F8093BA0C8091BA0C87FF15C0CF
:105220001092BA0C80915A2290915B22A0915C223C
:10523000B0915D220196A11DB11D80935A229093D9
:105240005B22A0935C22B0935D228091FE23882391
:10525000F1F08091BB0C8F5F8093BB0C8091BB0CF5
:1052600087FF15C01092BB0C80915222909153225F
:10527000A0915422B09155220196A11DB11D809399
:10528000522290935322A0935422B09355220E940D
:105290001539892B11F00E949439FF91EF91BF913C
:1052A000AF919F918F917F916F915F914F913F91BE
:1052B0002F910F900BBE0F900FBE0F901F9018955F
:1052C0001F920F920FB60F920BB60F9211242F93CD
:1052D0003F934F935F936F937F938F939F93AF937E
:1052E000BF93EF93FF938091C600E0916022F0910D
:1052F0006122309709F00995FF91EF91BF91AF912D
:105300009F918F917F916F915F914F913F912F91DD
:105310000F900BBE0F900FBE0F901F9018951F920D
:105320000F920FB60F920BB60F9211242F933F934B
:105330004F935F936F937F938F939F93AF93BF939D
:10534000EF93FF938091CE00E0915E22F0915F2277
:10535000309709F00995FF91EF91BF91AF919F911F
:105360008F917F916F915F914F913F912F910F900E
:105370000BBE0F900FBE0F901F901895882371F4ED
:105380001092C5006093C40088E98093C1004093E7
:10539000C20010926122109260220895813069F457
:1053A0001092CD006093CC0088E98093C9004093AF
:1053B000CA0010925F2210925E220895882339F469
:1053C0008091C00085FFFCCF6093C60008958130B6
:1053D00031F48091C80085FFFCCF6093CE00089522
:1053E000882329F4709361226093602208958130AC
:1053F00021F470935F2260935E2208951F93CF93F0
:10540000DF93182FEB010DC08A3021F4812F6DE05E
:105410000E94DE2968816D3019F0812F0E94DE29FB
:1054200021968881882381F7DF91CF911F9108957C
:10543000682F80E00E94DE2908951F93182F8A307C
:1054400031F48091BC0C6DE00E94DE2902C08D30E9
:1054500029F08091BC0C612F0E94DE2980E090E051
:105460001F9108958093BC0C86EF98E090930631CD
:1054700080930531089584B7877F84BF88E10FB694
:10548000F89480936000109260000FBE08952FE0A2
:1054900088E190E00FB6F894A895809360000FBE65
:1054A000209360000895A895089588E10FB6F894B8
:1054B00080936000109260000FBE0895F89428E079
:1054C00088E190E00FB6F894A895809360000FBE35
:1054D00020936000FFCF682F80FF54C08091BD0CE7
:1054E0009091BE0C892780FF0CC080919400909110
:1054F0009500909394248093932481E08093842456
:1055000041C0809184248823E9F180919400909196
:105510009500209193243091942482179307A0F44E
:1055200080915B2490915C24A0915D24B0915E24D5
:105530008C57914EAF4FBF4F80935B2490935C2468
:10554000A0935D24B0935E24809194009091950087
:10555000821B930BA0E0B0E020915B2430915C248F
:1055600040915D2450915E24820F931FA41FB51FAC
:1055700080935B2490935C24A0935D24B0935E247D
:105580001092842461FF54C08091BD0C9091BE0C98
:10559000892781FF0CC08091940090919500909391
:1055A00096248093952481E08093852441C0809146
:1055B00085248823E9F180919400909195002091B1
:1055C00095243091962482179307A0F480915F244C
:1055D00090916024A0916124B09162248C57914EE7
:1055E000AF4FBF4F80935F2490936024A0936124BA
:1055F000B09362248091940090919500821B930B4C
:10560000A0E0B0E020915F243091602440916124BB
:1056100050916224820F931FA41FB51F80935F24B3
:1056200090936024A0936124B09362241092852407
:1056300062FF54C08091BD0C9091BE0C892782FFFF
:105640000CC0809194009091950090939824809341
:10565000972481E08093862441C08091862488230A
:10566000E9F18091940090919500209197243091D8
:10567000982482179307A0F4809163249091642466
:10568000A0916524B09166248C57914EAF4FBF4FC7
:105690008093632490936424A0936524B09366243C
:1056A0008091940090919500821B930BA0E0B0E054
:1056B00020916324309164244091652450916624A4
:1056C000820F931FA41FB51F8093632490936424BB
:1056D000A0936524B0936624109286248091BE0C1A
:1056E0009091BD0C89270E94132608959091BE0CBD
:1056F00098279093BE0C0E946B2A08950E94762BE7
:1057000008958091BE0C9091BD0C892780950E94D0
:10571000762B08952091BD0C982F9095922390930D
:10572000BD0C82230E946B2A08959091BD0C282FF6
:10573000292B2093BD0C909589230E946B2A0895F4
:105740000E94012608950E94FA251092BE0C109224
:10575000BD0C08958093BF0C08958091C00C0895EE
:10576000DA0180936201909363016093600170930A
:1057700061014115510521F1FA01819180936B017D
:1057800011968C9180936A01DF011196818180933B
:105790006901FD01319611968C9180936801DF01BA
:1057A0001196818180936701FD01319611968C914C
:1057B0008093660181818093650182818093640179
:1057C00008958091692290E008958091390181FFC8
:1057D00003C020E030E013C081E491E06FE140E0DD
:1057E0000E943932282F813019F421E030E007C0BF
:1057F00080E090E0213111F481E090E09C01C9014A
:1058000008958091390181FF02C091E016C081E4C2
:1058100091E06FE140E00E943932282F81518230BF
:1058200058F02F3149F0213039F090E0223009F45E
:1058300091E081E0982701C090E0892F0895CF93EF
:10584000DF93C0E0D0E00E94012C882329F4219648
:1058500087E2C031D807B9F7DF91CF9108958091E1
:10586000390181FF02C080E1089585E491E06FE095
:1058700040E00E943932089581E491E06FE140E018
:105880000E943932089581E491E06FE140E00E9486
:105890003932823021F0823111F081E0089580E0C8
:1058A00008950F931F93182F883059F0863049F0D0
:1058B000893039F0863129F0893119F022E430E05D
:1058C0005EC08091390181FF03C024E430E057C0FD
:1058D0000E941F2C81E491E06FE140E00E94393288
:1058E000082F181709F449C0183099F4809139012C
:1058F000809139018D7F809339018DE090E001978F
:10590000F1F782E491E06FE140E023E00E9443324E
:1059100025C0193141F48631A9F482E491E06FE1A8
:1059200040E029E009C0163169F4893159F482E474
:1059300091E06FE140E026E00E94433283E090E096
:105940000197F1F782E491E06FE140E0212F0E949E
:105950004332083019F489E691E002C083E090E018
:105960000197F1F781E491E06FE140E00E94393264
:10597000811719F023E430E002C020E430E0C901CF
:105980001F910F91089580919400909195009093AC
:105990009C2480939B2421E0209388242093FE2341
:1059A0008091390181FF16C08091940090919500FB
:1059B0009093982480939724209386242093FD230A
:1059C0007894809139018D7F809339018091FD23F6
:1059D0008823E1F786E10E94512C0E941F2C089534
:1059E0008091FE23882311F40E94C32C81E090E073
:1059F00008950E941F2C80913901809139018D7F7B
:105A0000809339018DE090E00197F1F782E491E015
:105A10006FE140E023E00E94433283E090E0019791
:105A2000F1F7809139018260809339018091862459
:105A30008823E9F18091940090919500209197241A
:105A40003091982482179307A0F480916324909159
:105A50006424A0916524B09166248C57914EAF4F79
:105A6000BF4F8093632490936424A0936524B093E4
:105A700066248091940090919500821B930BA0E086
:105A8000B0E02091632430916424409165245091CA
:105A90006624820F931FA41FB51F809363249093E5
:105AA0006424A0936524B0936624109286241092F7
:105AB000FE23809188248823E9F1809194009091BD
:105AC000950020919B2430919C2482179307A0F489
:105AD00080916B2490916C24A0916D24B0916E24E0
